:020000040000FA
:060000000000E7EF00F034
:020006000000F8
:080008009E92732AD8B41D90EA
:1000100084A61E6A84B61EB013EF00F01D921E82E5
:100020001E80D650256E243E1EB26CEF00F0000EEE
:10003000053E0109063E0209073E0409083E08097B
:10004000093E10090A3E20090F3E40090E3E800974
:100050001F16000E183E0109173E0209163E04093C
:10006000153E0809143E1009133E2009123E4009AE
:10007000113E80092016FE0E103E010921160F0EBA
:100080001C3E10091B3E20091A3E4009193E8009FA
:100090002216F80E0B3E01090C3E02090D3E040922
:1000A00023161F50000A806E000E1F122050000AF7
:1000B000816E000E20122150000A826EC00E2112A5
:1000C0002250000A836E000E22122350000A846E12
:1000D000F80E2312B9EF00F0000E246E1EB0D66A9F
:1000E0004850056E4950066E4A50076E4B50086ED8
:1000F0004C50096E4D500A6E52500F6E51500E6E9C
:100100005B50186E5A50176E5950166E5850156E37
:100110005750146E5650136E5550126E5450116E47
:100120005350106E5F501C6E5E501B6E5D501A6E09
:100130005C50196E4E500B6E4F500C6E50500D6E41
:10014000FF0E1F121F50000A806EFF0E201220505B
:10015000000A816E010E21122150000A826EF00EFB
:1001600022122250000A836E070E23122350000A27
:10017000846E73A673B4E6EF00F073B2D2EF00F0B2
:1001800073B0C8EF00F0958228BE28BCE6EF00F0FF
:10019000229228BA2282285029102AAE000E726EAE
:1001A000E6EF00F073B0DDEF00F072BE72BC72BA21
:1001B000959228342836E6EF00F0293429362A367D
:1001C000272EE6EF00F0278626502A6E1100486A97
:1001D000496A4A6A4B6A4C6A4D6A4E6A4F6A506A6B
:1001E000516A526A536A546A556A566A576A586A1B
:1001F000596A5A6A5B6A5C6A5D6A5E6A5F6AE96A42
:10020000026AEA6A246A736A1F6A206A216A226A99
:10021000236AFF0E1D6E0F01FF0E806EFF0E816EB2
:10022000010E826EF00E836E070E846E700ED36E1A
:10023000400E9B6E0F0EC16E0F01000E926E000EEF
:10024000936EFE0E946E0F0E956EF80E966E000E67
:10025000966ED09E9D6AA06A890E0F01AF6EB06A3D
:10026000080EB86E0F01240EAC6E0F01900EAB6E2F
:100270009C0E0F01CB6E040E0F01CA6E0F019D8202
:100280000F019E92C70ED56E0F01F26A1E6A84B6E8
:100290001E801EB02680080E276E880E286E520E15
:1002A000296E2A6A266AC00EF26E046A1D3CA6EC0C
:1002B00001F09EAA56EF01F0060EAB14D8A46DEF24
:1002C00001F0AE50036E820FD8A475EF01F0E96A19
:1002D000E98E0350AD6E56EF01F0AE50800E756E94
:1002E000AB98AB88E96A56EF01F0010FD8B456EF2E
:1002F00001F0E952D8B456EF01F0E9BA69EF01F024
:10030000E9AE92EF01F0E99EE98A03AE69EF01F0F0
:10031000030603BE69EF01F0480EE96E309E032A22
:1003200069EF01F030AE99EF01F04E0E03269FEF1A
:1003300001F0308E7F0E0318D8B456EF01F0309ED6
:10034000800E0350EF6EE92A56EF01F01DB0B8EFB2
:1003500001F01D807406D8B4261A7606D8B4750646
:10036000D8B4022EB8EF01F0269084B62680028819
:100370001DB212001D82010E7706D8B4261A100E87
:10038000026E2550DF08D8B012002504F29E0F013E
:0E039000CB6E0F01CC5CD8B0CC6AF28E12009E
:020000040030CA
:0100010008F6
:010002000CF1
:0100030000FC
:0100050001F9
:010006008178
:010008000FE8
:01000900C036
:01000A000FE6
:01000B00E014
:01000C000FE4
:01000D0040B2
:00000001FF
