:020000040000FA
:060000000000EFEF00F02C
:020006000000F8
:080008009E922E2AD8B41D902F
:1000100084A61E6A84B61EB013EF00F01D921E82E5
:100020001E80D650256E243E1EB26CEF00F0000EEE
:10003000053E0109063E0209073E0409083E08097B
:10004000093E10090A3E20090F3E40090E3E800974
:100050001F16000E183E0109193E0209143E04093C
:10006000153E0809163E1009113E2009123E4009AE
:10007000133E80092016FE0E103E010921160F0EB8
:100080001A3E10091B3E20091C3E4009173E8009FC
:100090002216F80E0B3E01090C3E02090D3E040922
:1000A00023161F50000A806E000E1F122050000AF7
:1000B000816E000E20122150000A826EC00E2112A5
:1000C0002250000A836E000E22122350000A846E12
:1000D000F80E2112B9EF00F0000E246E1EB0D66AA1
:1000E0004850056E4950066E4A50076E4B50086ED8
:1000F0004C50096E4D500A6E52500F6E51500E6E9C
:100100005B50186E5C50196E5750146E5850156E37
:100110005950166E5450116E5550126E5650136E43
:100120005350106E5D501A6E5E501B6E5F501C6E09
:100130005A50176E4E500B6E4F500C6E50500D6E45
:10014000FF0E1F121F50000A806EFF0E201220505B
:10015000000A816E010E21122150000A826EF00EFB
:1001600022122250000A836E070E23122350000A27
:10017000846E2EA62EB4EEEF00F02EB2D8EF00F073
:100180002EB0CEEF00F0958095829584229028BE07
:100190002280229228BC2282EEEF00F0229428BA1C
:1001A0002284285029102AAE000E2D6EEEEF00F0AA
:1001B0002EB0E5EF00F02DBE95902DBC95922DBA96
:1001C000959428342836EEEF00F0293429362A3663
:1001D000272EEEEF00F0278626502A6E1100486A7F
:1001E000496A4A6A4B6A4C6A4D6A4E6A4F6A506A5B
:1001F000516A526A536A546A556A566A576A586A0B
:10020000596A5A6A5B6A5C6A5D6A5E6A5F6AE96A31
:10021000026AEA6A246A2E6A1F6A206A216A226ACE
:10022000236AFF0E1D6E0F01FF0E806EFF0E816EA2
:10023000010E826EF00E836E070E846E700ED36E0A
:10024000400E9B6E0F0EC16E0F01000E926E000EDF
:10025000936EFE0E946E0F0E956EF80E966E0F0155
:10026000000E966ED09E9D6AA06A890E0F01AF6E39
:10027000B06A080EB86E0F01240EAC6E0F01900E1E
:10028000AB6E9C0E0F01CB6E040E0F01CA6E0F01F8
:100290009D820F019E92C70ED56E0F01F26A1E6AF3
:1002A00084B61E801EB0268A080E276E880E286E21
:1002B000520E296E2A6A266AC00EF26E046A1D3C2E
:1002C000B2EC01F09EAA5FEF01F0060EAB14D8A4C9
:1002D00076EF01F0AE50036E820FD8A47FEF01F0ED
:1002E000E96AE98E0350AD6E5FEF01F0AE50800E0B
:1002F000306E2682AB98AB88E96A5FEF01F0010FA0
:10030000D8B45FEF01F0E952D8B45FEF01F0E9BA79
:1003100072EF01F0E9AE9CEF01F0E99EE98A03AECD
:1003200072EF01F0030603BE72EF01F0480EE96EB2
:10033000389E032A72EF01F038AEA3EF01F04E0EA3
:100340000326A9EF01F0388E7F0E0318D8B45FEFB3
:1003500001F0389E800E316E26860350EF6EE92A3A
:100360005FEF01F01DB0C7EF01F01D80010E2F06F9
:10037000D8B4261A3106D8B426963006D8B42692B8
:10038000022EC7EF01F0269A84B6268A02881DB293
:1003900012001D82200E3206D8B4261A100E026EEC
:1003A0002550DF08D8B012002504F29E0F01CB6E55
:0C03B0000F01CC5CD8B0CC6AF28E1200B9
:020000040030CA
:0100010008F6
:010002000CF1
:0100030000FC
:0100050001F9
:010006008178
:010008000FE8
:01000900C036
:01000A000FE6
:01000B00E014
:01000C000FE4
:01000D0040B2
:00000001FF
