:020000040000FA
:06000000000097EF00F084
:020006000000F8
:080008009E921E2AD8B40F904D
:1000100084A6106A84B610B013EF00F00F9210821D
:100020001080D650156E143E10B23EEF00F0E00E78
:10003000073E0109083E0209093E04090A3E080973
:100040000B3E10091116FF0E1216F80E0C3E010998
:100050000D3E02090E3E040913161150000A806E6F
:10006000000E11121250000A816E000E121213506F
:10007000000A826EC00E131261EF00F0000E146EC3
:1000800010B0D66A4050076E4150086E4250096E5B
:1000900043500A6E44500B6E45500C6E46500D6E28
:1000A00047500E6E1F0E11121150000A806E000E86
:1000B00012121250000A816E070E13121350000A1A
:1000C000826E1EA61EB496EF00F01EB280EF00F006
:1000D0001EB076EF00F094869488948A139618BE2A
:1000E0001386139818BC138896EF00F0139A18BA69
:1000F000138A185019101AAE000E1D6E96EF00F0FC
:100100001EB08DEF00F01DBE94961DBC94981DBAD4
:10011000949A1834183696EF00F0193419361A36B6
:10012000172E96EF00F0178616501A6E1100406ACF
:10013000416A426A436A446A456A466A476AE96AAA
:10014000046AEA6A146A1E6A116A126A136AFF0E66
:100150000F6E0F011F0E806E000E816E070E826EF5
:10016000700ED36E400E9B6E0F0EC16E0F01E00E2F
:10017000926EFF0E936EF80E946ED09E9D6AA06AEA
:10018000890E0F01AF6EB06A080EB86E0F01240E13
:10019000AC6E0F01900EAB6E9C0E0F01CB6E040E79
:1001A0000F01CA6E0F019D820F019E92C70ED56E80
:1001B0000F01F26A106A84B6108010B0168A080E19
:1001C000176E880E186E520E196E1A6A166AC00ED5
:1001D000F26E066A0F3C3DEC01F09EAAEAEF00F0D9
:1001E000060EAB14D8A401EF01F0AE50056E820FDD
:1001F000D8A40AEF01F0E96AE98E0550AD6EEAEF86
:1002000000F0AE50800E206E1682AB98AB88E96A83
:10021000EAEF00F0010FD8B4EAEF00F0E952D8B4E9
:10022000EAEF00F0E9B6FDEF00F0E9AE27EF01F0EC
:10023000E99EE98A05AEFDEF00F0050605BEFDEF7B
:1002400000F0400EE96E289E052AFDEF00F028AE72
:100250002EEF01F04E0E052634EF01F0288E7F0EB2
:100260000518D8B4EAEF00F0289E800E216E16869D
:100270000550EF6EE92AEAEF00F00FB055EF01F0FC
:100280000F80010E1F06D8B4161A2106D8B4161A0C
:100290002106D8B416962006D8B41692042E55EF2F
:1002A00001F0169A84B6168A04880FB212000F82E3
:1002B000200E2206D8B4161A100E046E1550DF0850
:1002C000D8B012001504F29E0F01CB6E0F01CC5C6A
:0802D000D8B0CC6AF28E1200D6
:020000040030CA
:0100010008F6
:010002000CF1
:0100030000FC
:0100050001F9
:010006008178
:010008000FE8
:01000900C036
:01000A000FE6
:01000B00E014
:01000C000FE4
:01000D0040B2
:00000001FF
