:020000040000FA
:06000000000007EF01F013
:020006000000F8
:080008009E92732AD8B42790E0
:1000100084A6286A84B628B013EF00F027922882BD
:100020002880D6502F6E2E3E28B27CEF00F0000EB6
:10003000073E0109083E0209093E04090A3E080973
:100040000B3E10090C3E2009113E4009103E80096C
:100050002916000E1B3E01091C3E02091D3E040923
:100060001E3E0809173E1009183E2009193E400996
:100070001A3E80092A16C00E123E0109133E0209DB
:10008000143E0409153E0809253E1009263E2009A4
:100090002B16020E163E0109233E0409243E0809D0
:1000A0001F3E1009203E2009213E4009223E8009C2
:1000B0002C16F80E0D3E01090E3E02090F3E0409F2
:1000C0002D162950000A806E000E29122A50000AAF
:1000D000816E000E2A122B50000A826EC00E2B1267
:1000E0002C50000A836E000E2C122D50000A846ED4
:1000F000F80E2D12D9EF00F0000E2E6E28B0D66A41
:100100004050076E4150086E4250096E43500A6ECF
:1001100044500B6E45500C6E4A50116E4950106E93
:1001200054501B6E55501C6E56501D6E57501E6E0F
:100130005050176E5150186E5250196E53501A6E1F
:100140004B50126E4C50136E4D50146E4E50156E37
:100150005E50256E5F50266E4F50166E5C50236EBB
:100160005D50246E58501F6E5950206E5A50216EAB
:100170005B50226E46500D6E47500E6E48500F6E0B
:10018000FF0E29122950000A806EFF0E2A122A50F3
:10019000000A816E3F0E2B122B50000A826EFD0E5C
:1001A0002C122C50000A836E070E2D122D50000ABF
:1001B000846E73A673B406EF01F073B2F2EF00F031
:1001C00073B0E8EF00F0958232BE32BC06EF01F06A
:1001D0002C9232BA2C823250331034AE000E726E32
:1001E00006EF01F073B0FDEF00F072BE72BC72BAA0
:1001F00095923234323606EF01F0333433363436EA
:10020000312E06EF01F031863050346E1100406A15
:10021000416A426A436A446A456A466A476A486A6A
:10022000496A4A6A4B6A4C6A4D6A4E6A4F6A506A1A
:10023000516A526A536A546A556A566A576A586ACA
:10024000596A5A6A5B6A5C6A5D6A5E6A5F6AE96AF1
:10025000046AEA6A2E6A736A296A2A6A2B6A2C6A15
:100260002D6AFF0E276E0F01FF0E806EFF0E816E4E
:100270003F0E826EFD0E836E070E846E700ED36E7F
:10028000400E9B6E0F0EC16E0F01000E926E000E9F
:10029000936EC00E946E020E956EF80E966E000E62
:1002A000966ED09E9D6AA06A890E0F01AF6EB06AED
:1002B000080EB86E0F01240EAC6E0F01900EAB6EDF
:1002C0009C0E0F01CB6E040E0F01CA6E0F019D82B2
:1002D0000F019E92C70ED56E0F01F26A286A84B68E
:1002E000288028B03080080E316E880E326E520E93
:1002F000336E346A306AC00EF26E066A273CCFEC69
:1003000001F09EAA7EEF01F0060EAB14D8A495EF83
:1003100001F0AE50056E820FD8A49DEF01F0E96A9E
:10032000E98E0550AD6E7EEF01F0AE50800E756E19
:10033000AB98AB88E96A7EEF01F0010FD8B47EEF8D
:1003400001F0E952D8B47EEF01F0E9BA91EF01F083
:10035000E9AEBAEF01F0E99EE98A05AE91EF01F04E
:10036000050605BE91EF01F0400EE96E3A9E052AA2
:1003700091EF01F03AAEC1EF01F04E0E0526C7EF46
:1003800001F03A8E7F0E0518D8B47EEF01F03A9E48
:10039000800E766E0550EF6EE92A7EEF01F027B0F1
:1003A000E1EF01F027807406D8B4301A7606D8B48D
:1003B0007506D8B4042EE1EF01F0309084B6308099
:1003C000048827B212002782010E7706D8B4301AAB
:1003D000100E046E2F50DF08D8B012002F04F29ECA
:1003E0000F01CB6E0F01CC5CD8B0CC6AF28E12003C
:020000040030CA
:0100010008F6
:010002000CF1
:0100030000FC
:0100050001F9
:010006008178
:010008000FE8
:01000900C036
:01000A000FE6
:01000B00E014
:01000C000FE4
:01000D0040B2
:00000001FF
