:020000040000FA
:060000000000AFEF00F06C
:020006000000F8
:080008009E92262AD8B417903D
:1000100084A6186A84B618B013EF00F017921882FD
:100020001880D6501D6E1C3E18B24EEF00F0E00E48
:10003000073E0109083E0209093E04090A3E080973
:100040000B3E10091916020E153E0109143E040953
:10005000133E0809123E1009113E2009103E4009C6
:100060000F3E80091A16E10E0C3E02090D3E0409EE
:100070000E3E0809163E10091B161950000A806E24
:10008000000E19121A50000A816E000E1A121B502F
:10009000000A826EC00E1B1281EF00F0000E1C6E73
:1000A00018B0D66A4050076E4150086E4250096E33
:1000B00043500A6E44500B6E4E50156E4D50146EE8
:1000C0004C50136E4B50126E4A50116E4950106EC8
:1000D00048500F6E45500C6E46500D6E47500E6ED8
:1000E0004F50166E1F0E19121950000A806EFD0E29
:1000F0001A121A50000A816E1E0E1B121B50000AA3
:10010000826E26A626B4AEEF00F026B29AEF00F07B
:1001100026B090EF00F0948A20BE20BCAEEF00F035
:100120001B9A20BA1B8A2050211022AE000E256E89
:10013000AEEF00F026B0A5EF00F025BE25BC25BA35
:10014000949A20342036AEEF00F021342136223646
:100150001F2EAEEF00F01F861E50226E1100406A67
:10016000416A426A436A446A456A466A476A486A1B
:10017000496A4A6A4B6A4C6A4D6A4E6A4F6AE96A32
:10018000046AEA6A1C6A266A196A1A6A1B6AFF0EFE
:10019000176E0F011F0E806EFD0E816E1E0E826E99
:1001A000700ED36E400E9B6E0F0EC16E0F01E00EEF
:1001B000926E020E936EE10E946ED09E9D6AA06ABE
:1001C000890E0F01AF6EB06A080EB86E0F01240ED3
:1001D000AC6E0F01900EAB6E9C0E0F01CB6E040E39
:1001E0000F01CA6E0F019D820F019E92C70ED56E40
:1001F0000F01F26A186A84B6188018B01E8A080EB9
:100200001F6E880E206E520E216E226A1E6AC00E6C
:10021000F26E066A173C5DEC01F09EAA0AEF01F04F
:10022000060EAB14D8A421EF01F0AE50056E820F7C
:10023000D8A42AEF01F0E96AE98E0550AD6E0AEF05
:1002400001F0AE50800E286E1E82AB98AB88E96A32
:100250000AEF01F0010FD8B40AEF01F0E952D8B467
:100260000AEF01F0E9B81DEF01F0E9AE47EF01F048
:10027000E99EE98A05AE1DEF01F0050605BE1DEFFA
:1002800001F0400EE96E309E052A1DEF01F030AE00
:100290004EEF01F04E0E052654EF01F0308E7F0E2A
:1002A0000518D8B40AEF01F0309E800E296E1E8624
:1002B0000550EF6EE92A0AEF01F017B06FEF01F079
:1002C0001780010E2706D8B41E1A2806D8B41E922D
:1002D000042E6FEF01F01E9A84B61E8A048817B2AE
:1002E00012001782200E2A06D8B41E1A100E046EB1
:1002F0001D50DF08D8B012001D04F29E0F01CB6E16
:0C0300000F01CC5CD8B0CC6AF28E120069
:020000040030CA
:0100010008F6
:010002000CF1
:0100030000FC
:0100050001F9
:010006008178
:010008000FE8
:01000900C036
:01000A000FE6
:01000B00E014
:01000C000FE4
:01000D0040B2
:00000001FF
