:020000040000FA
:060000000000B7EF00F064
:020006000000F8
:080008009E92262AD8B417903D
:1000100084A6186A84B618B013EF00F017921882FD
:100020001880D6501D6E1C3E18B24EEF00F0E00E48
:10003000073E0109083E0209093E04090A3E080973
:100040000B3E10091916000E163E0109153E020955
:10005000143E0409133E0809123E1009113E2009FE
:10006000103E40090F3E80091A16F80E0C3E010999
:100070000D3E02090E3E04091B161950000A806E3F
:10008000000E19121A50000A816E000E1A121B502F
:10009000000A826EC00E1B1281EF00F0000E1C6E73
:1000A00018B0D66A4050076E4150086E4250096E33
:1000B00043500A6E44500B6E4F50166E4E50156EE4
:1000C0004D50146E4C50136E4B50126E4A50116EC0
:1000D0004950106E48500F6E45500C6E46500D6ED4
:1000E00047500E6E1F0E19121950000A806EFF0E37
:1000F0001A121A50000A816E070E1B121B50000ABA
:10010000826E26A626B4B6EF00F026B2A0EF00F06D
:1001100026B096EF00F094869488948A1B9620BEB1
:100120001B861B9820BC1B88B6EF00F01B9A20BAD8
:100130001B8A2050211022AE000E256EB6EF00F073
:1001400026B0ADEF00F025BE949625BC949825BA54
:10015000949A20342036B6EF00F02134213622362E
:100160001F2EB6EF00F01F861E50226E1100406A4F
:10017000416A426A436A446A456A466A476A486A0B
:10018000496A4A6A4B6A4C6A4D6A4E6A4F6AE96A22
:10019000046AEA6A1C6A266A196A1A6A1B6AFF0EEE
:1001A000176E0F011F0E806EFF0E816E070E826E9E
:1001B000700ED36E400E9B6E0F0EC16E0F01E00EDF
:1001C000926E000E936EF80E946ED09E9D6AA06A99
:1001D000890E0F01AF6EB06A080EB86E0F01240EC3
:1001E000AC6E0F01900EAB6E9C0E0F01CB6E040E29
:1001F0000F01CA6E0F019D820F019E92C70ED56E30
:100200000F01F26A186A84B6188018B01E8A080EA8
:100210001F6E880E206E520E216E226A1E6AC00E5C
:10022000F26E066A173C65EC01F09EAA12EF01F02F
:10023000060EAB14D8A429EF01F0AE50056E820F64
:10024000D8A432EF01F0E96AE98E0550AD6E12EFE5
:1002500001F0AE50800E286E1E82AB98AB88E96A22
:1002600012EF01F0010FD8B412EF01F0E952D8B447
:1002700012EF01F0E9B825EF01F0E9AE4FEF01F020
:10028000E99EE98A05AE25EF01F0050605BE25EFDA
:1002900001F0400EE96E309E052A25EF01F030AEE8
:1002A00056EF01F04E0E05265CEF01F0308E7F0E0A
:1002B0000518D8B412EF01F0309E800E296E1E860C
:1002C0000550EF6EE92A12EF01F017B07DEF01F053
:1002D0001780010E2706D8B41E1A2906D8B41E1A94
:1002E0002906D8B41E962806D8B41E92042E7DEF97
:1002F00001F01E9A84B61E8A048817B21200178273
:10030000200E2A06D8B41E1A100E046E1D50DF08E7
:10031000D8B012001D04F29E0F01CB6E0F01CC5C11
:08032000D8B0CC6AF28E120085
:020000040030CA
:0100010008F6
:010002000CF1
:0100030000FC
:0100050001F9
:010006008178
:010008000FE8
:01000900C036
:01000A000FE6
:01000B00E014
:01000C000FE4
:01000D0040B2
:00000001FF
